:020000040800F2
:10000000E026002431040008DF7B0008D7710008D7
:10001000DD7B000871080008F99C00080000000062
:100020000000000000000000000000007103000854
:10003000990A000800000000CD030008CD800008E8
:100040004B0400084B0400084B0400084B04000854
:100050004B0400084B0400084B0400084B04000844
:100060004B0400084B0400084B0400087508000806
:100070004B0400084B0400084B0400084B04000824
:100080004B0400084B0400084B040008A10A0008B8
:10009000B90A0008AD0A0008C50A00084B040008A8
:1000A0004B0400084B0400084B0400084B040008F4
:1000B0004B0400084B0400084B0400084B040008E4
:1000C0004B0400084B0400084B0400084B040008D4
:1000D0004B0400082D8D0008398D0008458D00085F
:1000E0004B0400084B040008000000004B0400080B
:1000F0004B0400084B0400084B0400084B040008A4
:100100004B0400084B0400084B0400084B04000893
:100110004B0400084B0400084B0400084B04000883
:100120004B0400084B0400084B0400084B04000873
:100130004B0400084B0400084B0400084B04000863
:1001400000000000000000000000000000000000AF
:100150004B0400084B0400084B0400084B04000843
:100160004B0400084B0400084B0400084B04000833
:100170004B040008057D00084B0400080000000047
:100180004B0400084B040008858600084B04000857
:100190004B0400084B0400084B0400084B04000803
:1001A0004B0400084B0400084B040008000000004A
:1001B0004B0400084B0400084B0400084B040008E3
:1001C0004B0400084B040008000000000000000081
:1001D00000000000000000004B04000800000000C8
:1001E000000000000000000000000000000000000F
:1001F00000000000000000004B0400084B04000851
:100200004B0400084B040008000000004B040008E9
:100210004B0400084B0400084B0400084B04000882
:100220004B040008000000004B0400080000000020
:100230004B0400084B040008000000004B040008B9
:100240004B0400084B0400084B0400084B04000852
:100250004B0400084B0400084B0400084B04000842
:100260004B0400084B0400084B0400084B04000832
:100270004B0400084B0400084B0400080000000079
:100280004B0400084B0400084B0400084B04000812
:10029000000000004B0400084B04000800000000B0
:1002A000000000004B0400084B0400084B04000849
:1002B000218D00084B0400084B040008D10A0008F7
:1002C000DD0A0008618200084B04000800F002F813
:1002D00000F03EF80AA090E8000C82448344AAF1A2
:1002E0000107DA4501D100F033F8AFF2090EBAE8A0
:1002F0000F0013F0010F18BFFB1A43F0010318475A
:10030000A4BA0000D4BA0000103A24BF78C878C15B
:10031000FAD8520724BF30C830C144BF04680C600B
:10032000704700000023002400250026103A28BF53
:1003300078C1FBD8520728BF30C148BF0B60704757
:100340001FB50BF0B1FC00F0B3F91FBD10B510BD27
:1003500000F0E2F91146FFF7F3FF0AF0C7F800F0EA
:1003600000FA03B4FFF7F2FF03BC00F007FA000045
:100370002C4B19680868B0E8F04F80F30988BFF388
:100380006F8F4FF0000080F311887047000000006D
:1003900008480068006880F308884FF0000080F388
:1003A000148862B661B6BFF34F8FBFF36F8F00DF63
:1003B00000BF00BF08ED00E0DFF80C00016841F469
:1003C00070010160704700BF88ED00E0EFF3098025
:1003D000BFF36F8F134B1A681EF0100F08BF20ED8C
:1003E000108A20E9F04F106009B44FF0500080F3FC
:1003F0001188BFF34F8FBFF36F8F0AF023FF4FF0C9
:10040000000080F3118809BC19680868B0E8F04F53
:100410001EF0100F08BFB0EC108A80F30988BFF3FC
:100420006F8F704720000024EFF3058070470000B5
:100430000948804709480047FEE7FEE7FEE7FEE778
:10044000FEE7FEE7FEE7FEE7FEE7FEE704480549B4
:10045000054A064B70470000A1810008CD02000844
:10046000E01C0024E0260024E01E0024E01E0024FE
:1004700053EA020C00F069802DE9F04B4FF00006C2
:10048000002B1FBFB3FA83F503FA05F424FA05F62F
:100490005E4012BF1643B2FA82F502FA05F4C5F1C6
:1004A00020051EBF22FA05FC44EA0C04203556EA5A
:1004B000044C4FEA144418BF641C4FF000084FF07E
:1004C0000009904271EB030C39D3002919BFB1FA2E
:1004D00081F701FA07F6B0FA80F700FA07F6C7F1DC
:1004E00020071EBF20FA07FC46EA0C062037B6FBA1
:1004F000F4FCA7EB0507103F07F01F0BCBF120061C
:100500000CFA0BFB2CFA06F644BFB3460026202F4C
:10051000A4BF5E464FF0000B5BEA060C08BF4FF02D
:10052000010B19EB0B09ABFB027C48EB0608C01B67
:1005300006FB02CC0BFB03CC71EB0C01C1E70B46B5
:10054000024641464846BDE8F08B13B54FF0000027
:100550004FF00001AFF30080BDE81C407047032A54
:1005600040F2308010F0030C00F0158011F8013BD0
:10057000BCF1020F624498BF11F801CB00F8013BB7
:1005800038BF11F8013BA2F1040298BF00F801CB7B
:1005900038BF00F8013B11F0030300F02580083A52
:1005A000C0F0088051F8043B083A51F804CBA0E8A9
:1005B0000810F5E7121D5CBF51F8043B40F8043BFE
:1005C000AFF30080D20724BF11F8013B11F801CB33
:1005D00048BF11F8012B24BF00F8013B00F801CB04
:1005E00048BF00F8012B704710B5203AC0F00B80CF
:1005F000B1E81850203AA0E81850B1E81850A0E827
:100600001850BFF4F5AF5FEA027C24BFB1E8185080
:10061000A0E8185044BF18C918C0BDE810405FEAF0
:10062000827C24BF51F8043B40F8043B08BF70476C
:10063000D20728BF31F8023B48BF11F8012B28BF71
:1006400020F8023B48BF00F8012B704702F0FF037F
:1006500043EA032242EA024200F03EB84FF00002B1
:1006600000B5134694469646203922BFA0E80C50A8
:10067000A0E80C50B1F12001BFF4F7AF090728BF83
:10068000A0E80C5048BF0CC05DF804EB890028BFFF
:1006900040F8042B08BF704748BF20F8022B11F028
:1006A000804F18BF00F8012B7047704770477047A4
:1006B00070B5064C7C44064D7D4403E02068204420
:1006C0008047241DAC42F9D170BD00001CB700006A
:1006D00020B700004FF000020429C0F0128010F093
:1006E000030C3FF4BDAFCCF1040CBCF1020F18BFFA
:1006F00000F8012BA8BF20F8022BA1EB0C01FFF79B
:10070000AFBF5FEAC17C24BF00F8012B00F8012BCA
:1007100048BF00F8012B7047754600F02BF8AE4635
:1007200005006946534620F00700854618B020B5FD
:10073000FFF78CFEBDE820404FF000064FF00007A9
:100740004FF000084FF0000B21F00701AC46ACE879
:10075000C009ACE8C009ACE8C009ACE8C0098D46E6
:10076000704710B50446AFF300802046BDE8104046
:10077000FFF7F7BD004870477C1C00240149182092
:10078000ABBEFEE7260002007047000010B53249FC
:1007900004460068884202D0304A904202D1D1F823
:1007A000080302E02E48D0F8080310F4403F10D0B0
:1007B00005F068F86168B1F5803F06D0B1F5003FFB
:1007C00003D0B1F5403F26D101E0090C17E08008C5
:1007D00021E000214FF4002004F00CF961688A0345
:1007E000920B18D18A140C2A15D2DFE802F01406F5
:1007F00006060606060B0D0F1113890C4900B0FB07
:10080000F1F008E0000906E0400904E0800902E098
:10081000C00900E0000A13494008884204D8206853
:10082000816821F4407108E00F49884207D82068A8
:10083000816821F4407141F48071816010BD0B49E1
:1008400088422068816804D821F4407141F4007125
:10085000F3E741F44071F0E700200240002102403C
:1008600000600258105E5F0020BCBE0040787D0131
:10087000FEE70000014801F073BA00000008002400
:10088000294A016891423AD0274A1832914236D01B
:10089000254A3032914232D0234A483291422ED0FA
:1008A000214A603291422AD01F4A7832914226D0A2
:1008B0001D4A9032914222D01B4AA83291421ED04A
:1008C0001A4A91421BD0194A1832914217D0174A3E
:1008D0003032914213D0154A483291420FD0134A18
:1008E000603291420BD0114A7832914207D00F4AC0
:1008F0009032914203D00D4AA832914211D1CAB22E
:100900001823103AB2FBF3F26FF30901032A02F045
:100910000703074AD25CC26500D9091D81650846F4
:10092000704721F0FF01F9E7100002401004024077
:10093000ECBC000830B5224A012301689142CAB2DA
:100940001BD01F4C1434A14217D01D4C2834A14297
:1009500013D01B4C3C34A1420FD0194C5034A1424F
:100960000BD0174C6434A14207D0154C7834A14207
:1009700003D0134C8C34A1420CD11421114C083AF1
:10098000B2FBF1F10F4A803201F01F0504EB810147
:10099000AB4010E00C4D1824103A0D44B2FBF4F1BA
:1009A000A82D00D80831094A01F01F0402EB81018B
:1009B000064AA3408032603080E80E0030BD00005F
:1009C0000854025800580258F0FBFDBF00080240CE
:1009D00010B50279531E072B2DD8174C0168A14280
:1009E0001BD0154C1434A14217D0134C2834A1420B
:1009F00013D0114C3C34A1420FD00F4C5034A142C3
:100A00000BD00D4C6434A14207D00B4C7834A1427A
:100A100003D0094C8C34A14203D10849074C44311E
:100A200002E00749064C443104EB8202C0E91B2175
:100A300001219940416710BD08540258FC580258E2
:100A4000FC08024010B583694FF0C074826A014609
:100A5000002053B1B3F5005F15D072B1012A0CD05C
:100A6000022A0AD0032A09D104E01AB1012A06D0C9
:100A7000022A03D1C96AC90100D5012010BDC96A83
:100A8000A142FAD010BD002AF7D0012AF2D0022AE2
:100A9000F3D0032AF3D010BD704772B6FEE7000012
:100AA000014802F077B8000078080024014802F0FD
:100AB00071B8000078080024014802F06BB800000B
:100AC00018090024014802F065B800001809002444
:100AD000014802F05FB80000B8090024014802F0A4
:100AE00059B80000B8090024F0B503684FF6FC714E
:100AF0006D4C426BD3F884508D4345EA8205C3F8B0
:100B00008450036853F8845F068F25F47F0545EA17
:100B100006451D60836B654D9F180268D2F88830CA
:100B20008B4343EA8703C2F88830026852F8883F53
:100B3000868F23F4FE0343EA06431360066856F8E3
:100B4000A03FC26B8B4307EB420243EA8203336050
:100B5000076857F8A03FB0F8406023F4FE0343EA6B
:100B600006433B60D0E9103603FB06220368D3F846
:100B7000B0608E4346EA8206C3F8B0600368B0F8FE
:100B80004860D3F8B07027F4FE0747EA0646C3F87A
:100B9000B060D0E91267036806FB0722D3F8AC60A7
:100BA0008E4346EA8206C3F8AC60D0E91467036856
:100BB00006FB0722D3F8F0608E4346EA8206C3F8AC
:100BC000F0600368B0F85860D3F8F07027F47C1731
:100BD00047EA0646C3F8F0600368876D53F8C06FB4
:100BE00002EB47028E4346EA820119600168B0F8C1
:100BF0005C20D1F8C03023F47C1343EA0242C1F8F0
:100C0000C020016890F86020D1F8C03023F07C53F8
:100C100043EA0262C1F8C020416B04EB8101C16666
:100C2000826B01EB82020267C36B02EBC302426775
:100C3000D0E91034634302EB83028267D0E91234B7
:100C4000634302EB8302C267D0E91434634302EBCF
:100C50008302C0F88020836D02EBC303C0F88430A8
:100C6000C46D826E544303EB8403C0F88830046E75
:100C7000544303EB8402C0F89020AA420AD9D0F86A
:100C80009C20032142F02002C0F89C2080F898109C
:100C90000120F0BD002200E004C1D0F890308B426A
:100CA000FAD80020F0BD000000AC0040FCD30040AA
:100CB000F0B58E680C69D1E9005744EA0604DFB14B
:100CC00045F080452C43866ED1E906C54F695E43E9
:100CD00091F8203045EA0C05B1F80CC0D0F884E05A
:100CE000002047EA03630C4F1D430EEB860345EAE1
:100CF0000C45E3E802450AE044EA8544E3E71418BA
:100D0000155C001DD4F8014045EA042410C3CC68EA
:100D10003C5D8442F3D8F0BDF4BC00082DE9F047F7
:100D20000F4690F85C109CB0044601294FF0000972
:100D300015D00026DFF8F880012084F85C001896B2
:100D40001996216841450ED13A4D0095284606F086
:100D500051FA8246206806F04DFA60B10EE002209A
:100D60001CB0BDE8F087206E84F85C6040F0200085
:100D700020660120F4E7BAF1000F09D0216E4FF090
:100D8000010941F020002066484684F85C60E7E7EE
:100D900020684146884201D0A84201D1264800E09F
:100DA000264840F61F72D7F800C0254BBCF1000F53
:100DB00023D0D0F808C0D7F804802CF4404C4CEA7B
:100DC000080CC0F808C0D4F800C08C4501D0AC4570
:100DD00007D18968AB6801F0010103F001031943F1
:100DE00002E0996801F001010029CDD1BD683968A0
:100DF000836829439343194317E0876827F44047E2
:100E0000876027688F4201D0AF4207D18968AB68FD
:100E100001F0010103F00103194302E0996801F0B8
:100E200001010029B0D1816891438160ACE70000E5
:100E300000200240002102400023024000630258CB
:100E4000006002582DE9F84F4FF0000B0446FE4EAB
:100E50000D46CDF800B0DA4690F85C00FB4F012853
:100E600008D04FF0010984F85C90206806F0BEF9C4
:100E700018B154E20220BDE8F88F286800280FDB83
:100E80002168B1420CD0CA69030327D090FAA0F0C0
:100E9000B0FA80F000F01F0309FA03F00243CA61C0
:100EA000D5E900124FF00C0C20681F23C1F38461B8
:100EB0000CEA921C02F01F02604493409140026BC6
:100EC0009A430A430263206806F090F9804620683E
:100ED00006F088F958EA000003D048E1C0F38460C6
:100EE000D8E7AA682968206806F088F92068B04227
:100EF00004D1C2686969C2F3C1020BE0D44A126826
:100F0000B9EB127F02D0C168C90605D4C26869690D
:100F1000C2F38202520004E0C268696902F0100262
:100F2000520891402A69042A5AD02B6800EB8202A9
:100F3000B04202F1600207D103F0F84013680843A1
:100F400040F00040106008E0D2F800C003F0F84024
:100F500008430CF00041014311602068B0421CD1ED
:100F60002A69E96900EB8200026E22F080720A436E
:100F7000026695F8201020682A6901290AD000210C
:100F8000B042AAD100EB8200026E22F000720A4346
:100F90000266ECE04FF00071F2E795F82120296934
:100FA000012A17D05FF0000200EB8100016E21F0F2
:100FB000004111430166297E20682A6901290CD06D
:100FC0000021036902F01F02914023F4F0420A431A
:100FD0000261CCE04FF00042E6E74FF40061F0E739
:100FE000B04273D1002106F0F7F8000320684FF0FB
:100FF00000016DD006F0F0F890FAA0F0B0FA80F1A0
:101000002868020369D090FAA0F0B0FA80F081421B
:1010100004D100222068114606F000F92068012161
:1010200006F0DAF8000320684FF0010158D006F00E
:10103000D3F890FAA0F0B0FA80F12868020354D0F7
:1010400090FAA0F0B0FA80F0814204D1206800222A
:10105000012106F0E3F82068022106F0BDF8000344
:1010600020684FF0020143D006F0B6F890FAA0F0E5
:10107000B0FA80F1286802033FD090FAA0F0B0FAED
:1010800080F0814204D120680022022106F0C6F8D7
:101090002068032106F0A0F8000320684FF0030148
:1010A0002ED006F099F890FAA0F0B0FA80F12868F6
:1010B00002032AD090FAA0F0B0FA80F0814256D113
:1010C00020680022032106F0A9F850E020E0FFE7A5
:1010D00006F082F8C0F3846192E7C0F3846096E77B
:1010E00006F07AF8C0F38461A7E7C0F38460ABE749
:1010F00006F072F8C0F38461BCE7C0F38460C0E717
:1011000006F06AF8C0F38461D1E7C0F38460D5E7E4
:10111000016E2A7801F0F841B1EB826F03D1016EC4
:1011200021F00041016620682978426E02F0F84201
:10113000B2EB816F03D1416E21F00041416620681E
:101140002978826E02F0F842B2EB816F03D1816E92
:1011500021F00041816620682978C26E02F0F842D1
:10116000B2EB816F03D1C16E21F00041C1662068EE
:10117000816811F0010F71D1364AB042EB682968DD
:101180000FD1D0F8B0C003F01808C1F3130322FA4E
:1011900008F20A402CEA030C4CEA020CC0F8B0C07A
:1011A0000EE0D0F8C0C003F01808C1F3130322FA10
:1011B00008F20A402CEA030C4CEA020CC0F8C0C04A
:1011C0002548E96881427DD1286801031BD090FA47
:1011D000A0F1B1FA81F1491C01F01F0109294FEA80
:1011E00000313CD8002911D090FAA0F1B1FA81F178
:1011F00001F1010101F01F0109FA01F209D100BF5B
:10120000C0F3846109E0C0F38461E4E7C0F3846162
:10121000EEE790FAA0F1B1FA81F101F1010101F0DC
:101220001F0142EA816102D1C0F3846003E090FAB9
:10123000A0F0B0FA80F000F1010000F01F0000EB18
:10124000400041EA005140E00060025800210240A5
:101250000010005CFFFF0F000000FF4765E0002961
:101260000FD000BF90FAA0F1B1FA81F101F10101B4
:1012700001F01F0109FA01F206D100BFC0F3846139
:1012800006E0C0F38461F1E790FAA0F1B1FA81F1D0
:1012900001F1010101F01F0142EA816102D1C0F3B5
:1012A000846003E090FAA0F0B0FA80F0434A00F1C5
:1012B000010000F01F0000EB400002EB005041EA8B
:1012C000000100E005E041F00071AA68206805F027
:1012D00095FFD5F800C0BCF1000F26DA384B206826
:1012E0003849DFF8E490984201D0B84201D10A466B
:1012F00000E04A469268984202F0E07201D0B8429B
:1013000009D19D68D7F8088005F0010508F00108AB
:1013100045EA080502E0B56805F001054DB1216E0A
:101320004FF0010A41F020002066504684F85CB07E
:10133000A1E5264DAC451CD115021AD4B042F4D11A
:10134000984202D0B84200D049468B6842F400006F
:1013500023F0E07202438A601E491D480968B1FB10
:10136000F0F04000801C00E0401E00900028FBD1FF
:10137000DBE7194DAC450CD1D5010AD4B042D4D12C
:10138000984202D0B84200D049468B6842F0807043
:101390000EE0124DAC45C8D15502C6D4B042C4D1FE
:1013A000984202D0B84200D049468B6842F480008F
:1013B00023F0E07202438A60B7E70000000020FEDD
:1013C000002002400023024000630258000052C780
:1013D000400D030018000024000021C3000084CB4E
:1013E0002DE9F8434FF0000504002E46009502D089
:1013F000206E18B108E00120BDE8F883204600F017
:1014000043F9656684F85C5020688168C1F34071D7
:1014100019B181688E4A1140816020688168C1F3EA
:10142000007181B981688B4A114041F0805181601F
:101430008A4989480968B1FBF0F0401C00E0401E71
:1014400000900028FBD120688168C1F3007141B988
:10145000216E012641F010012166616E41F001010B
:10146000616605F0C3FE216EC90600D420B1206E6E
:10147000012640F01000E0E0206E20F4807040F083
:101480000200206620688168754D11F0010F1ED1A1
:10149000744B754A984201D0904207D19968976879
:1014A00001F0010107F00107394302E0A96801F0EA
:1014B000010161B9984201D0904201D16B4800E02E
:1014C0006B488268616822F47C120A43826021685A
:1014D000A9421FD1637ED4E90207E26B5B033A4362
:1014E000082805D00C280FD01C280FD018280FD0A2
:1014F0005FF0000000F00C0794F8200043EA470377
:101500001A4342EA00400FE00420F3E70820F1E725
:101510001C20EFE7627E94F82030A768E06B52034E
:1015200042EA03423843104394F82020012A04D1B0
:10153000A28C504B03EB42421043A26A2AB1E36AE9
:1015400002F47872024343EA0200CA68A9420BD14E
:10155000494B1A400243CA602068626B016921F05E
:1015600040611143016103E0444B1A400243CA60E9
:10157000206805F03BFE0746206805F033FE074370
:101580004ED12068A946484506D1217E94F83820DE
:10159000890341EA420103E0227E216B41EA823164
:1015A000C26844F203039A430A43C26094F84400B9
:1015B0000128206803D0016921F0010122E048459B
:1015C0000ED1D4E9121CD4E9143502692C4F41EA3A
:1015D0000C012B433A401943114341F0010111E042
:1015E000D4E91317B4F848C0DFF89880636D026936
:1015F00008EB0C4C224D394343EA0C036D1E2A4084
:101600001943114301612068236C026922F0704282
:101610001A4302612068484502D02046FFF7B6F819
:101620002069012820680BD0016B21F00F010163B4
:10163000206E20F0020040F0010020663046DBE61C
:10164000E269016B521E21F00F011143EFE7000028
:10165000C0FFFF5FC0FFFF7F400D030018000024A4
:101660000060025800200240002102400023024096
:10167000006302580000FEFF0740F0FF03C0F0FFC8
:101680001FF800FC0100FFFFF0B5B5B006461421BD
:101690002EA8FEF7E3FFB8216846FEF7DFFF3149C9
:1016A000306888425BD1022000224FF40021009173
:1016B000CDE901201024154606AACDE90340C02338
:1016C000059082E8290068460995289503F0E0FA1C
:1016D00008B1FFF7E2F92448016841F020010160F8
:1016E000006800F0200033901F480830016841F086
:1016F00001010160016801F001013391016841F0CD
:1017000004010160006803272EA9309500F0040051
:1017100033902020CDE92E07144801F015FE14481F
:101720002EA9CDE92E47309501F00EFE114C09216E
:1017300011484FF4807C021584E82300D700C4E9E7
:101740000352C3142046C4E907C56562C4E90537DE
:1017500000F07AFE08B1FFF7A0F9B465A66335B0D2
:10176000F0BD000000200240D8440258000002589A
:101770000008025800080024100002402DE9F84F2C
:10178000044601F0F5FE00903CB194F835000228C3
:1017900006D0802161650020E4E00120BDE8F88FDB
:1017A000C74DC74EC649183520683036DFF8148358
:1017B000DFF814938842DFF814A3DFF814B32ED0B7
:1017C000A8422CD0B0422AD0404528D0484526D047
:1017D000504524D0584522D0BD4A183290421ED0E0
:1017E000BC4A90421BD0BB4A1832904217D0B94A2B
:1017F0003032904213D0B74A483290420FD0B54AA7
:10180000603290420BD0B34A7832904207D0B14A4E
:101810009032904203D0AF4AA832904209D1026878
:1018200022F01E0202602068426922F080024261BA
:1018300003E0026822F00E02026027688F423846F9
:101840004DD0A8424BD0B04249D0404547D0484542
:1018500045D0504543D0584541D09D4A183290421A
:101860003DD09C4A90423AD09A4A1832904236D0A3
:10187000984A3032904232D0964A483290422ED026
:10188000944A603290422AD0924A7832904226D0CE
:10189000904A9032904222D08E4AA83290421ED076
:1018A0008D4A90421BD08C4A1432904217D08A4AFB
:1018B0002832904213D0884A3C3290420FD0864A58
:1018C000503290420BD0844A6432904207D0824A10
:1018D0007832904203D0804A8C32974204D1206EF5
:1018E000026822F48072026075492068884228D01C
:1018F000A84226D0B04224D0404522D0484520D02E
:1019000050451ED058451CD071491831884218D016
:101910007049884215D06F491831884211D06D49FD
:10192000303188420DD06B494831884209D069492D
:101930006031884205D067497831884201D06549D5
:101940009031016821F0010101600EE001F010FE0C
:101950000099401A052808D9202262650321002039
:1019600084F8351084F8340017E73868C007EDD1E3
:10197000534A0121206890422ED0A8422CD0B04278
:101980002AD0404528D0484526D0504524D0584537
:1019900022D04F4B183398421ED04E4B98421BD04A
:1019A0004C4B1833984217D04A4B3033984213D0DF
:1019B000484B483398420FD0464B603398420BD087
:1019C000444B7833984207D0424B9033984203D02F
:1019D000404BA833984208D194F85C703F23A06D27
:1019E00007F01F07BB40836007E094F85C30A06DF0
:1019F00003F01F0301FA03F34360206890424DD0C7
:101A0000A8424BD0B04249D0404547D0484545D088
:101A1000504543D0584541D02D4A183290423DD0D0
:101A20002C4A90423AD02B4A1832904236D0294A5A
:101A30003032904232D0274A483290422ED0254A46
:101A4000603290422AD0234A7832904226D0214AEE
:101A50009032904222D01F4AA83290421ED01E4A95
:101A600090421BD01C4A1432904217D01A4A283296
:101A7000904213D0184A3C3290420FD0164A50324E
:101A800090420BD0144A6432904207D0124A783206
:101A9000904203D0104A8C3290420BD1D4E9190203
:101AA0004260E06E30B1026822F480720260D4E9D4
:101AB0001C024260002084F8351084F834006DE682
:101AC00010000240580002407000024088000240AE
:101AD000A000024010040240085402582DE9F05FB3
:101AE00028B190F83510022904D0802141650120E9
:101AF000BDE8F09F904C904B0168183C18338E4A1B
:101B0000DFF83C92A1428D4CDFF838E28E4FDFF8CF
:101B10003CB2DFF83CA28F4D8F4E31D091422FD096
:101B200099422DD0A1422BD0494529D0714527D0CB
:101B3000B94225D0DFF810C20CF1180C61451FD056
:101B4000DFF808C2ACF1600C614519D0DFF8FCC1C8
:101B5000ACF1480C614513D0DFF8F0C1ACF1300CAA
:101B600061450DD0DFF8E4C1ACF1180C614507D038
:101B7000594505D0514503D0A94201D0B1422CD1DD
:101B8000DFF8B4C14FF0040880F83580ACF1180CD0
:101B900061451DD091421BD0994219D0A14217D066
:101BA000494515D0714513D0B94211D06648183057
:101BB00081420DD065486038814209D06348483879
:101BC000814205D061483038814201D05F481838E1
:101BD000086820F001000860ABE0D1F800C02CF0EC
:101BE0000E08DFF854C1C1F80080ACF1180C016890
:101BF000614527D0914225D0994223D0A14221D0DE
:101C000049451FD071451DD0B9421BD0DFF838C1FE
:101C10000CF1180C614515D0DFF830C1ACF1600C47
:101C200061450FD0DFF824C1ACF1480C614509D003
:101C3000DFF818C1ACF1300C614503D0DFF80CC1FE
:101C4000ACF1180CD1F800C02CF0010CC1F800C0A8
:101C5000DFF8E4804FF0010C0168A8F11808414555
:101C600046D0914244D0994242D0A14240D0494509
:101C70003ED071453CD0B9423AD0334A18329142F5
:101C800036D0324A603A914232D0304A483A914294
:101C90002ED02E4A303A91422AD02C4A183A9142FC
:101CA00026D0594524D0514522D0A94220D0B14256
:101CB0001ED02A4A91421BD0284A1432914217D092
:101CC000264A2832914213D0244A3C3291420FD006
:101CD000224A503291420BD0204A6432914207D0BE
:101CE0001E4A7832914203D01C4A8C32914218D15C
:101CF000016E0A6822F480720A6090F85C20816D9F
:101D000002F01F020CFA02F24A60D0E919124A608E
:101D1000C16E31B10A6822F480720A60D0E91C12E7
:101D20004A600022016D80F835C080F8342001B18E
:101D300088470020DCE600002800024058000240EE
:101D40007000024088000240A0000240700402407F
:101D500088040240A0040240B8040240085402581B
:101D60002DE9FC5F0446F74E0020DFF8D883009091
:101D70004FF41652F44808F11808A56DDFF8C49323
:101D8000DFF8C0A3016809F1300920680AF1480AA8
:101D9000B1FBF2F1B04201912F68D5F800C0DFF835
:101DA000ACB335D04146884232D0484530D050455A
:101DB0002ED058452CD0E5491831884228D0E34927
:101DC0003031884224D0E1494831884220D0E0496E
:101DD00088421DD0DE491831884219D0DC493031A3
:101DE000884215D0DA494831884211D0DFF860E3E3
:101DF0000EF1600E70450BD0D54A7832904207D074
:101E0000D34B9033984203D0D149A83188427DD139
:101E100094F85C20082102F01F0201FA02F23A4213
:101E20004AD0B04232D0404530D048452ED05045FF
:101E30002CD058452AD0C54A1832904226D0C34AE1
:101E40003032904222D0C14A483290421ED0C04A1D
:101E500090421BD0BE4A1832904217D0BC4A303252
:101E6000904213D0BA4A483290420FD0B84A6032FA
:101E700090420BD0B64A7832904207D0B44A9032A2
:101E8000904203D0B24AA832904203D1026802F0D5
:101E9000040202E0026802F008026AB1026822F05D
:101EA0000402026094F85C0000F01F008140A96009
:101EB000606D40F00100606594F85C00012100F065
:101EC0001F008140394240D02068B04234D04045A4
:101ED00032D0484530D050452ED058452CD09B4A62
:101EE0001832904228D0994A3032904224D0974AF2
:101EF0004832904220D0964A90421DD0944A1832DF
:101F0000904219D0924A3032904200E0AFE113D0B3
:101F10008F4A483290420FD08D4A603290420BD0A7
:101F20008B4A7832904207D0894A9032904203D04F
:101F3000874AA83290427DD1406910F0800F04D0CA
:101F4000A960606D40F00200606594F85C000421B7
:101F500000F01F00814039423ED02068B04232D0AC
:101F6000404530D048452ED050452CD058452AD039
:101F7000764A1832904226D0744A3032904222D0AB
:101F8000724A483290421ED0714A90421BD0704A29
:101F90001832904217D06E4A3032904213D06C4AB9
:101FA000483290420FD06A4A603290420BD0684A61
:101FB0007832904207D0664A9032904203D0644A09
:101FC000A83290424ED1006810F0020F04D0A960F0
:101FD000606D40F00400606594F85C00102100F032
:101FE0001F008140394258D02068B04234D040456B
:101FF00032D0484530D050452ED058452CD0534A89
:102000001832904228D0514A3032904224D04F4A60
:102010004832904220D04E4A90421DD04C4A18324D
:10202000904219D04A4A3032904215D0484A48323C
:10203000904200E014E00FD0454A603290420BD04D
:10204000434A7832904207D0414A9032904203D0BE
:102050003F4AA832904207D1006800F0080006E02D
:10206000006872E70068B7E7006800F00400A0B1FC
:10207000A96020680168490304D50068000308D5F9
:10208000A16C07E00168C90503D4016821F00801CB
:102090000160216C09B12046884794F85C0020213A
:1020A00000F01F008140394279D02068B04232D020
:1020B000404530D048452ED050452CD058452AD0E8
:1020C000224A1832904226D0204A3032904222D002
:1020D0001E4A483290421ED01D4A90421BD01C4AD4
:1020E0001832904217D01A4A3032904213D0184A10
:1020F000483290420FD0164A603290420BD0144AB8
:102100007832904207D0124A9032904203D0104A5F
:10211000A832904203D1006800F0100002E000688D
:1021200000F00200B0B3A96094F8350004282068DC
:1021300001680FD049037ED5006800032BD4616C81
:102140002AE0000010000240180000247000024045
:102150001004024021F0160101602068416921F05D
:1021600080014161206C08B9A06C20B12068016831
:1021700021F00801016094F85C303F21012003F058
:102180001F0300229940A96084F8350084F83420A8
:10219000216D65E003E0E16B09B120468847606D81
:1021A00000287DD0606DC00759D02068042184F8D4
:1021B0003510B0422BD0404529D0484527D0504556
:1021C00025D0584523D09D49884220D09B491831BD
:1021D00088421CD099493031884218D098498842A9
:1021E00015D097491831884211D09549303188422D
:1021F0000DD093494831884209D0914960318842D5
:1022000005D08F497831884201D08D4990310168DD
:1022100021F00101016020680099019A491C009198
:10222000914202D80168C907F6D10068C00710D0F2
:1022300003200FE0FFE70168C905ACD40368012162
:10224000002223F01003036084F8351084F8342052
:10225000A1E7012084F83500002084F83400E16C07
:1022600000291DD002B02046BDE8F05F084775493F
:1022700088421DD073491431884219D071492831E0
:10228000884215D06F493C31884211D06D49503198
:1022900088420DD06B496431884209D0694900E019
:1022A00084E07831884203D066498C3188427DD100
:1022B00094F85C800427016808F01F0807FA08F703
:1022C00017EA0C0F009746D04F0744D500980F042B
:1022D000686003D5C8033CD4A16CC1E7880638D434
:1022E0002068B0422DD055496039884229D04845F0
:1022F00027D0504525D0584523D05049884220D07A
:102300004E49183188421CD04C493031884218D08F
:102310004B49884215D04A491831884211D0484962
:10232000303188420DD046494831884209D0704545
:1023300007D0904205D0984203D04149A831884245
:1023400003D1016821F0080102E0016821F00401D5
:102350000160216C84E7022707FA08F717EA0C0FDF
:1023600000974ED08F074CD500980F04686003D5B6
:10237000C80344D4616C73E7880640D42068B04237
:102380002FD02E49603988422BD0484529D050455E
:1023900027D0584525D02949884222D027491831CD
:1023A00088421ED025493031884200E044E018D0F0
:1023B0002349884215D022491831884211D020493A
:1023C000303188420DD01E494831884209D07045CD
:1023D00007D0904205D0984203D01949A8318842CD
:1023E00003D1016821F0140102E0016821F00A0123
:1023F0000160012184F83510002084F83400E16B7D
:102400002EE7082202FA08F212EA0C0F14D009078C
:1024100012D5016821F00E01016094F85C100120D2
:10242000002201F01F0100FA01F16960606584F883
:10243000350084F8342012E7BDE8FC9F8800024094
:1024400010040240085402582DE9F05F044601F0E0
:102450008FF8002C07467DD0E24E022120684FF015
:102460000308DFF884934FF00005DFF880A3B04243
:10247000DFF87CB334D0DB4A1832904230D0484584
:102480002ED050452CD058452AD0D94A18329042E7
:1024900026D0D74A3032904222D0D54A4832904294
:1024A0001ED0D44A90421BD0D24A1832904217D044
:1024B000D04A3032904213D0CE4A483290420FD0A8
:1024C000CC4A603290420BD0CA4A7832904207D050
:1024D000C84A9032904203D0C64AA83290427DD179
:1024E00084F83510B04284F834502ED0BD491831EC
:1024F00088422AD0484528D0504526D0584524D077
:10250000BB491831884220D0B949303188421CD0AB
:10251000B7494831884218D0B649884215D0B549E4
:102520001831884211D0B349303188420DD0B149B9
:102530004831884209D0AF496031884205D0AD4961
:102540007831884201D0AB499031016821F0010116
:10255000016008E025E100BF01F00AF8C01B052872
:1025600001D920211AE120680068C007F4D1D4E91C
:1025700002032168103418438E4694E88410D4E98D
:10258000033809683A4310439B4A40EA0C006769E4
:1025900018431140103C40EA0800042F40EA0100B3
:1025A00003D1D4E90B12114308436168A1F1290258
:1025B000052A0BD9163A032A08D9083A012A05D95F
:1025C000083A032A02D97439032901D840F480104B
:1025D000CEF800002068676A406900E020E0042F20
:1025E00020F0070047EA00070DD1D4E90A010743AC
:1025F00049B12046FEF726FA28B140206065012146
:1026000084F83510CDE0206847612046FEF738F9A0
:1026100094F85C203F2102F01F029140816055E058
:10262000764A90421BD0754B1433984217D0734BA7
:102630002833984213D0714B3C3398420FD06F4BE4
:10264000503398420BD06D4B6433984207D06B4B9C
:102650007833984203D0694B8C3398427ED184F80A
:10266000351084F83450664B0168A26801EA030E05
:10267000402A74D0802A73D05FF00002D4E9037836
:10268000D4E9053142EAD70242EAD8085B4AD4E9E4
:10269000077C48EAD30848EAD10141EAD70152420F
:1026A00041EA1C11142341EA0E0101602068104424
:1026B000B0FBF3F08000E0652046FEF7E1F894F807
:1026C0005C20012102F01F02914041602068B0426D
:1026D00057D044491831884253D0484551D05045CD
:1026E0004FD058454DD042491831884249D04049D1
:1026F0003031884245D03E494831884241D03D4939
:1027000088423ED03B49183188423AD0394930316D
:10271000884236D037494831884232D03549603115
:1027200088422ED03349783188422AD031499031BD
:10273000884226D02F49A831884222D02F4988428A
:102740001FD02E49143188421BD02C492831884291
:1027500017D02A493C31884213D002E01DE017E02F
:1027600018E02649503188420BD024496431884210
:1027700007D022497831884203D020498C318842E1
:1027800029D12046FEF7D6F8A06880280CD00CE0AE
:10279000102273E74FF4804270E74021616584F8AE
:1027A00035800120BDE8F09F6560216E20790860CA
:1027B000D4E9190141606068401E072808D8204606
:1027C000FEF706F9E06E0560D4E91C01416002E005
:1027D000E566256765670120656584F8350000209A
:1027E000E0E70000100002404000024058000240B4
:1027F00070000240100402403F8010FE085402584E
:102800000F00FEFF10B590F89830012B09D0022B75
:1028100007D0D0F89C1041F00201C0F89C100120B4
:1028200010BD03689C6D0C4203D1DC6D44F00104C3
:1028300004E09C6D31EA04041FD00324DC658B05A1
:1028400005D50368D3F8E0401443C3F8E0404B05D6
:1028500005D50368D3F8E4401443C3F8E4400068A6
:10286000084A01EA0203446D074A1C4344651068A4
:1028700040EA91701060002010BDDC6D44F002044D
:10288000DCE70000FFFFCF3F14A8004070B504460E
:1028900090F89800022804D0D4F89C0040F008007A
:1028A0000DE02068D0F8C03013F07C5F0BD0D0F87A
:1028B000C4309B020CD5D4F89C0040F40070C4F8DE
:1028C0009C00012070BDD4F89C0040F02000F6E789
:1028D000D0F8C400C0F3044520462B46FEF7E8F9C3
:1028E00021680120A840C1F8D000C4F8940000205D
:1028F00070BD704790F89830012B07D0D0F89C102D
:1029000041F00401C0F89C100120704761B10068DB
:10291000012913D0D0F8B01021F0FE4141EA026144
:10292000C0F8B010002070470068D0F8F01021F017
:102930007C5141EA0261C0F8F010F3E7D0F8A01032
:1029400021F0FE4141EA0261C0F8A010EAE770B54B
:1029500090F89820012A09D0022A07D0D0F89C10BC
:1029600041F00201C0F89C10012070BD0B68CA68DC
:1029700083B10B69072A43EA427325D00C7A4A696E
:1029800042EA84724968006F00EBC100C0E900327E
:10299000002070BD072A0DD00C7AD6060D8A4B692F
:1029A00043EA847246EA0543C06E49681A4340F818
:1029B0002120EDE70B8A4FF06055D1E9062442EA69
:1029C000034245EA0423EFE78A69DBE730B590F874
:1029D0009850039C012D07D0D0F89C1041F00401C1
:1029E000C0F89C10012030BD0D01016845EA82004D
:1029F00040EA43002043C1F88000002030BD70470A
:102A000070470000F0B590F898500024022D04D0D3
:102A1000D0F89C1041F0080129E0402905D0412957
:102A200029D0056D8D4219D942E00568D5F8A0601E
:102A300016F4FE0F12D0D5F8A460760613D0D5F8A0
:102A4000A460F60105D5D5F8A06016F0004F00D5BA
:102A50000124D5F8A470466F456C24E0D0F89C1092
:102A600041F0200103E0D0F89C1041F48071C0F8DF
:102A70009C100120F0BD0568D5F8B06016F4FE0F7B
:102A8000ECD0D5F8B4607606EDD0D5F8B460F60198
:102A900005D5D5F8B06016F0004F00D50124D5F863
:102AA000B470866FC56CC7F305273C44654302E0EC
:102AB000456DC66F4D4306EB85052E6816F08046C2
:102AC00056602E6836D026F060461660D5F800C0F5
:102AD00000262E4F0CF0005CC2F808C0D5F800C0EC
:102AE0000CF0004CC2F810C0B5F804C01FFA8CFC02
:102AF000C2F81CC0D5F804C0CCF3034CC2F80CC01B
:102B0000D5F804C00CF4801CC2F814C0D5F804C079
:102B10000CF4001CC2F818C0D5F804C0CCF3066C45
:102B2000C2F820C0D5F804C008354FEADC7CC2F8F2
:102B300024C008E0C6F38A46C7E700BF15F806C000
:102B400003F806C0761CD2F80CC017F80CC0B445C8
:102B5000F4D840290AD041290CD020294FF0010295
:102B60000CD200688A40C0F898200DE00068C0F8D8
:102B7000A84009E00068C0F8B84005E0006801F02E
:102B80001F018A40C0F89C200020F0BDF4BC000862
:102B9000704700002DE9FF5FDFF80CB304460BF12E
:102BA0000401DBF8000025680F68AA468007D5F805
:102BB0005090696DD5F850806E6D2A6DD5F854C06F
:102BC0002B6D00EA8770009009F470496F6D286DD5
:102BD00001EA09010191DAF85410DAF85490DAF8B0
:102BE000505008F00F0806EA0806029602F0F002BC
:102BF00003F071536FEA09061F4000F060700CEAA1
:102C0000020CCDF80CC0F20501EA00090CD4E8432F
:102C1000C00509D400214FF48073CAF85030CBF8B6
:102C200000102046FFF7B4FF700512D4E8434005BA
:102C30000FD4206800234FF48068D0F8DC20D0F84F
:102C4000E410C0F85080CBF800301140204600F06E
:102C500077FBDFF858A2009850B12268830F00EA92
:102C60000A001065CBF8003020460099FFF741FEBE
:102C7000019850B12268830F00EA0A001065CBF872
:102C800000302046019900F05DFB029850B12268A7
:102C9000830F00EA0A001065CBF800302046029945
:102CA00000F012FB039850B12268830F00EA0A007B
:102CB0001065CBF800302046039900F021FB300569
:102CC0000CD4E843000509D4236800204FF40062C7
:102CD0001A65CBF80000204600F035FBB00512D491
:102CE000E84380050FD4206800234FF40078D0F823
:102CF000D820D0F8E010C0F85080CBF80030114058
:102D0000204600F01EFB30030CD4E843000309D436
:102D1000236800204FF400221A65CBF800002046FB
:102D200000F0D0FAF0030CD4E843C00309D42368C0
:102D300000204FF480321A65CBF80000204600F0E6
:102D4000FEFA70030CD4E843400309D42268002043
:102D50004FF480231365CBF80000204600F0EEFA14
:102D6000B0030FD4E84380030CD4236800204FF451
:102D700000321A65CBF80000D4F89C0040F08000C7
:102D8000C4F89C00B9F1000F0BD022684FEA997388
:102D900009EA0A001065CBF8003049462046FFF7E3
:102DA0002FFE5FB12268BB0F07EA0A001065CBF85F
:102DB0000030D4F89C003843C4F89C003C4920689B
:102DC000884268D1606881468068800763D0D9F8FE
:102DD0002060D9F82410D9F82080D9F82400D9F837
:102DE00020C0D9F82470D9F82030D9F82450D9F867
:102DF000202003F4FC4306F00F0AD9F824601D409C
:102E0000D9F824B008F030080CF4C07C02F4F022A9
:102E100011EA0A0100EA080807EA0C0706EA0206B6
:102E2000D9F820A004D0C9F82010204600F083FA79
:102E3000B8F1000005D0616808624146204600F004
:102E40007CFA6FEA0B0040060ED46FEA0A004006D7
:102E50000AD460684021C36BC26B01622046190C22
:102E600002F03F0200F068FA2FB16068076239464D
:102E7000204600F05FFA35B160680562D4F89C0026
:102E80002843C4F89C0036B160680662D4F89C0000
:102E90003043C4F89C00D4F89C00002802D020469F
:102EA000FFF7ADFDBDE8FF9F10A80040FFFFCF3F3B
:102EB00000A000402DE9F04194B08D494C22044619
:102EC0006846FDF791FB64B18A4D2068A84202D1A3
:102ED00000F58070606094F898004FF0000820B111
:102EE00008E0012014B0BDE8F081204684F8998004
:102EF00000F002F92068816921F01001816100F081
:102F000037FB0327064604E000F032FB801B0A284B
:102F100011D8206880690007F6D42068816941F0E3
:102F20000101816100F024FB06460DE000F020FB6A
:102F3000801B0A2808D9D4F89C0040F00100C4F88E
:102F40009C0084F89870CCE720688069C007EDD0B9
:102F50002068816941F002018161207C012820689C
:102F6000816937D041F040018161607C012820688F
:102F7000816932D021F480418161A07C01282068E0
:102F800081692DD041F4805181612068A2688169F6
:102F900021F44071114381612068816921F0A4010D
:102FA00081612068016921F010010161E068012858
:102FB00019D010B302281BD02068816941F080012C
:102FC00081612068016941F010010161E068032816
:102FD0000ED012E021F04001C6E741F48041CBE77A
:102FE00021F48051D0E72068816941F0040103E0B9
:102FF0002068816941F020018161207E6FF0FF022D
:10300000D4E90773A68A1102400602EB0727A0F154
:103010000070384327685B1E184301EB06463043B7
:10302000F861A068B0F5407F11D104F12800A68CAA
:103030006FF00F0C89C801EB0641401E02EB032222
:10304000104322680CEB071318430843D060206E2E
:1030500030B12068626ED0F8C0101143C0F8C010C3
:10306000D4E917126846D14209D02168A36E51F8FD
:10307000C82F50F8233022F007021A430A60216C4F
:1030800049B12168626C51F8BC3F50F8226023F0CE
:10309000070232430A60A16C51B12168E36C51F818
:1030A000BC2F50F8233022F0700242EA03120A606B
:1030B000216D51B12168626D51F8BC3F50F822007A
:1030C00023F4E06242EA002008602068A84204D1AC
:1030D0006068816821F003018160C4F89480012157
:1030E000C4F89C8084F898102046FDF7FDFCF9E6B2
:1030F00004BD000800A000402DE9F047B4B08146AF
:1031000014212EA8FDF7AAFAB8216846FDF7A6FA01
:10311000664C0026D9F800004FF08051644A0C3C00
:10312000614F4FF00208614D9042DFF888A14FF0E7
:10313000090938D100201B914A13CDE900206846C7
:1031400001F0A6FD08B1FDF7A8FC3868401C386006
:10315000012807D1286840F480702860286800F4AE
:1031600080703390206840F00800206020680322BF
:103170002E922EA900F00800CDE92F863196CDE9D8
:103180003290504600F0E0F800220521132000F0B4
:103190008DFA132000F07CFA00220521152000F0A2
:1031A00085FA15203BE0444A90423DD100201B9116
:1031B0004FF40042CDE90020684601F069FD08B1F6
:1031C000FDF76BFC3868401C3860012807D128687F
:1031D00040F480702860286800F480703390206884
:1031E00040F002002060206860222E922EA900F09C
:1031F0000200CDE92F863196CDE932902F4800F0BC
:10320000A3F800220521142000F050FA142000F049
:103210003FFA00220521162000F048FA162000F09F
:1032200037FA34B0BDE8F087254A9042F9D1002042
:103230001B914FF40042CDE90020684601F028FDC3
:1032400008B1FDF72AFC3868401C3860012807D116
:10325000286840F480702860286800F480703390FB
:10326000206840F00800206020684FF440512E9103
:10327000052200F00800CDE92F862EA93196CDE970
:103280003220504600F060F8002205219F2000F017
:103290000DFA9F2000F0FCF900220521A02000F08B
:1032A00005FAA020BBE7000008000024EC44025807
:1032B00000A00040000C025800A400400004025886
:1032C00000D400407047000010B50446C80710D075
:1032D0000848844201D106F0BBFD0748844201D171
:1032E00006F0D6FD0548844203D1BDE8104006F043
:1032F000DDBD10BD7808002418090024B809002499
:10330000704790F89810012907D0D0F89C1041F030
:103310000401C0F89C1001207047022180F8981029
:10332000002201688B6923F001038B61C0F89C20A7
:103330001046704770477047704770477047704736
:1033400070477047704770472DE9F84F03247A4D56
:1033500000234FF001094FF0B04B4FF00F0AE4E0AB
:1033600009FA03F6324078D00F7907F00307012FEE
:1033700001D0022F1AD187684FEA430ED1F80CC052
:1033800004FA0EF827EA08070CFA0EFC4CEA070CC0
:10339000C0F808C0476891F804C0B743CCF3001CDC
:1033A0000CFA03FC4CEA070CC0F804C00E79F64393
:1033B000B6070BD0C6684FEA43088F6804FA08FCCA
:1033C00026EA0C0607FA08F73743C7600E7906F0BD
:1033D0000306022E12D1DE080F694FEA437C00EB90
:1033E0008606B646366A4FEADC6C0AFA0CF807FA2B
:1033F0000CF726EA08063743CEF820700F790668E6
:103400004FEA430807F0030704FA08FC07FA08F735
:1034100026EA0C06374307604E6816F4403F1CD07E
:10342000464E376847F00207376036689F0706F058
:103430000206009623F0030606F1B046B6463F0F9B
:10344000D6F80864DFF8F8800AFA07FC404526EA57
:103450000C0603D14FF0000C3AE065E0DFF8E4C061
:10346000604502D14FF0010C32E0DFF8DCC060456E
:1034700002D14FF0020C2BE0DFF8D0C0604502D142
:103480004FF0030C24E0DFF8C8C0604502D14FF0D4
:10349000040C1DE0DFF8BCC0604502D14FF0050C04
:1034A00016E0DFF8B4C0604502D14FF0060C0FE023
:1034B000DFF8A8C0604502D14FF0070C08E0DFF844
:1034C000A0C0604502D14FF0090C01E04FF00A0C9A
:1034D0000CFA07FC4CEA060CCEF808C44F68DBF87F
:1034E0000060FF0226EA020600D516435F46CBF8CD
:1034F0000060D1F804C0DBF804605FEA8C2C26EA97
:10350000020600D516437E606E684F6826EA020602
:10351000BF0300D516436E602E684F6826EA020688
:10352000FF0300D516432E605B1C0A6832FA03F6CF
:103530007FF416AFBDE8F88F80000058F4440258BD
:10354000000002580004025800080258000C0258FB
:10355000001002580014025800180258001C0258AB
:10356000002402580AB1816170470904FBE700009A
:1035700001488068704700000C0000240248816800
:1035800002781144816070470C000024032010B5BC
:1035900000F0ACF802F0BCF90F4A10491468136847
:1035A000C4F3032203F00F038A5CC95C02F01F021C
:1035B00001F01F01D0400A4A20FA01F111600949C7
:1035C00008600F2000F010F808B1012010BD00F0D5
:1035D0004DF8002010BD00001844025878BD0008C6
:1035E0001C0000241800002410B5102804468AB0DE
:1035F0002AD200220146A12000F058F8A12000F0B4
:1036000047F8154804601548016841F08071016071
:10361000006808A900F080700990684602F004F97B
:1036200002F064F90E49400000220E4CB0FBF1F1AB
:103630000D4840F2E7330460C0E90332491EC0E997
:10364000011202F077FF10B101200AB010BD064848
:1036500002F0A2FFF9E7000010000024EC44025839
:1036600040420F0000E0004060100024074882B094
:10367000016841F002010160006800220F2100F0A2
:1036800002000090901E02B000F010B8F4440258FE
:10369000002809DB410900F01F028900012001F127
:1036A000E0219040C1F80001704700000E4BF0B4DB
:1036B0001B680D46C3F30223C3F10706042E00D98D
:1036C0000426191D072901D2002300E0DB1E012476
:1036D00004FA06F19C40491E2940641E994014409A
:1036E0002143F0BC06F09FBE0CED00E0064900F05F
:1036F000070210B54FF6FF040868044B204040EA6B
:1037000002201843086010BD0CED00E00000FA052F
:103710002DE9F04F02688346FE484FF0000A8DB055
:103720000C468242564602D10025012001E00125C7
:103730000020E8460027814607EB47017F1C08EB85
:10374000C101F8B204F04CFA20B108204FF0010A90
:10375000CBF85400FFB2022FEED3BAF1000F7CD1A8
:10376000DFF8B0E3DEF80000C00707D0DEF8001095
:1037700046F0010621F00101CEF80010E64800688D
:10378000C00706D0E44846F00206016821F00101B6
:10379000016005EB45030C93E048424608EBC30388
:1037A000DFF87CB30121DC469F6800EB8707D7F880
:1037B000008428F48078C7F80084DBF80070FF07E5
:1037C00032D0DCF80070B9F1010F27F00107CCF816
:1037D00000705CD1069B00EB8303D3F8007447F0C4
:1037E0000207C3F80074079B3BB100EB8303D3F8D7
:1037F000007447F02007C3F80074099B4BB121EA1D
:10380000030300EB8303D3F8047447F48027C3F861
:1038100004740A9BDBB321EA030700EB8703D3F8A8
:10382000047447F0806730E00C9F52F8377077B32C
:1038300000EB8707D7F800C42CF0010CC7F800C4D0
:103840005F683FB100EB8707D7F800C42CF0100C7D
:10385000C7F800C4D3F80CC000E057E1BCF1000F7A
:1038600009D021EA0C0700EB8707D7F804C42CF431
:10387000803CC7F804C41B694BB121EA030700EB85
:103880008703D3F8047427F08077C3F8047409EB36
:103890004903D4F800C0CDF830C0914652F83370D7
:1038A000BC4518D009EBC302D4F804C0D2F8048098
:1038B000C44510D0D4F808C0D2F80880C4450AD056
:1038C000D4F80CC0D2F80C80C44504D0D4F810C091
:1038D0001269944551D10C9ABA4219D109EBC3022D
:1038E000D4F804C0D2F80480C44511D1D4F80CC077
:1038F000D2F80C80C4450BD1D4F810C0126994459D
:1039000006D1DBF8003043F00103CBF8003034E09F
:1039100000EB870709EBC302D7F8003423F001035B
:10392000C7F8003453683BB100EB8303D3F800744D
:1039300027F01007C3F80074936800EB8303D3F8F3
:10394000007427F48077C3F80074D3684BB121EA80
:10395000030700EB8703D3F8047427F48037C3F818
:10396000047412694AB121EA020300EB8302D2F81F
:10397000043423F08073C2F80434A3685A4600EB81
:103980008303D3F8007427F4407747EA452747F4C8
:103990008077C3F80074DBF800C063695F1ECCF366
:1039A000074C674508D95F4FD2F800C007EB0347C3
:1039B0002CF47F033B4313601268D207226800EBAC
:1039C0008202D2F800343FD023F003035B1CC2F81C
:1039D000003462684AB100EB8202D2F8003423F06E
:1039E000300343F01003C2F80034E268D3030AD571
:1039F00021EA020300EB8302D2F8043423F4E0232B
:103A000043F480330AE05AB121EA020300EB830257
:103A1000D2F8043423F0E06343F08073C2F8043436
:103A20002269D30307D5914300EB8100D0F8041439
:103A300021F4E0214AE0EAB3914300EB8100D0F8A1
:103A4000041421F0E0614EE001EB450723F003038D
:103A50003B43C2F8003462685AB100EB8202D2F8EC
:103A6000003423F0300343EA451343F01003C2F857
:103A70000034E268D3030CD521EA020300EB830291
:103A8000D2F8043423F4E02343EA854343F480333B
:103A90000CE06AB121EA020300EB8302D2F804349D
:103AA00023F0E06343EA856343F08073C2F8043493
:103AB000226900E01BE0D3030BD5914300EB8100AA
:103AC000D0F8041421F4E02141EA854141F4403169
:103AD0000BE062B1914300EB8100D0F8041421F0B7
:103AE000E06141EA856141F04071C0F80414F007DB
:103AF00005D0DEF8001041F00101CEF80010B0074B
:103B000004D50548016841F0010101600DB050463F
:103B1000BDE8F08F0050005200A0005200B00052EB
:103B200000B400520000FFFFF8B500250446FFF77F
:103B30001FFD064624B100206065206D10B170E0C5
:103B400001256EE0204600F073F841F28830A06550
:103B5000258A6FF0FF012268D4F814C00F02636B4E
:103B600007EB0545E06801EB0C27D4F81CC01843AF
:103B700093683D432D4F28433B4040EA0C001843D7
:103B800090602068236AC26822F4E0221A43C2606F
:103B90002368228EA06B40EA024018612268E06B25
:103BA0005061D4E90003026801EB032322F4F851C9
:103BB00019430160A06D0022202133460090204669
:103BC00004F07CF805002CD12068626AC168521E9E
:103BD00021F0FF011143C1602068A268016821F053
:103BE0004001114301602068D4E90A12D0F808317D
:103BF000114323F0A0421143C0F808112068016866
:103C000041F001010160A069022804D120688168A7
:103C100041F002018160E068B0F1806F03D00220C2
:103C200020652846F8BD0120FAE70000F4F8E0F826
:103C30002DE9F043B5B0044614216846FCF70EFDAB
:103C4000B82106A8FCF70AFD4749206888427DD1C3
:103C5000002019904FF000710446CDE9061006A827
:103C600001F016F808B1FCF718FF4048016841F46C
:103C700000110160016801F400110591016841F42F
:103C800000210160006800F40020059037480C30E6
:103C9000016841F001010160016801F00101059135
:103CA000016841F002010160016801F00201059123
:103CB000016841F010010160016801F010010591F7
:103CC000016841F00801016000680225092700959C
:103CD00000F00800DFF89880032603966946CDE9D6
:103CE0000470CDE901544046FFF72EFB06210294F3
:103CF0000820CDE90361CDE9000569464046FFF79C
:103D000023FB0121DFF86C9002AA4FF00408CDE9F3
:103D100000156946484682E85001FFF715FB02AAE4
:103D20006946484682E8D000CDE90085FFF70CFBE4
:103D30000B2111484FF40068CDF80080CDE90361F4
:103D4000CDE901546946FFF7FFFA00E008E002AA56
:103D50000A48694682E8D000CDE90085FFF7F4FA09
:103D600035B0BDE8F083000000A00052D4440258F2
:103D7000000002580004025800100258000C0258BB
:103D80007047D0F8E00405F065B901EBC10200EB23
:103D90008202D0F8E004126A05F0B8B801EBC10263
:103DA00000EB8202D0F8E004D2F8602205F00AB9F4
:103DB000D0F8E00405F050B90A0601F00F0101EB5C
:103DC000C10100EB810101D5143101E001F515714C
:103DD000006805F02DBE70B50279044601F00F00B1
:103DE000904201D9012070BD01F00F024FF0000593
:103DF0000B0602EBC2014FF0010204EB810102D578
:103E00004A75143103E081F8555201F515718D7032
:103E1000087094F89404012808D084F89424206849
:103E200005F092FC002084F8945470BD022070BD0F
:103E30002DE9F04101F00F0604460D064FF0010098
:103E400006EBC6014FF0000504EB810102D5487571
:103E5000143103E081F8555201F515714F788A60ED
:103E60000B710E7007B14E83022B00D14D7194F887
:103E70009424012A09D084F89404206805F0EAFB10
:103E8000284684F89454BDE8F0810220FBE770B521
:103E900001F00F05002405EBC50100EB810101F5E0
:103EA000187181E81C0001F80B4C01F80C5D837956
:103EB000012B00D1CA618279006805F09DFC0020C9
:103EC00070BD70B50D460179044605F00F008842BB
:103ED00001D9012070BD29064FF000064FF0010204
:103EE00006D500EBC00104EB81014A75143107E0EF
:103EF00005EBC50104EB810181F8556201F51571EF
:103F00008A70087094F89404012807D084F89424E7
:103F1000206805F045FC280702D007E0022070BDAC
:103F2000A17904F29C42206805F0E2FB002084F8AD
:103F3000946470BD70B501F00F04002504EBC4015A
:103F4000012600EB8101203181E82C0001F80B6C87
:103F500001F80C4D8379012B00D1CA618279006888
:103F600005F04AFC002070BD2DE9FC5F05680446A1
:103F7000284605F0D7FD00287ED1206805F0FEFD1B
:103F8000002879D0D5F80808C0F30D20C4F8D4046F
:103F9000206805F0F3FD800704D52068416901F031
:103FA00002014161206805F0E9FDC10604F29C4070
:103FB000009035D52068816921F0100181612F6A58
:103FC00007F00F01C7F3434001EBC101022804EBE6
:103FD000810606F5157602D0062812D01BE047F6BA
:103FE000F070074217D0C7F30A12F1681746284647
:103FF00005F0C8FD7169F068394471613844F060BA
:1040000009E000990822284605F0BCFD7069C7F355
:104010000A11084470612068816941F010018161D2
:10402000206805F0ABFD00034FF0080B4FF0000ACD
:104030004FF001097CD52068002605F07EFD07467B
:1040400074E0F80770D02068F1B205F08FFD80466B
:10405000C00707D005EB4611C1F8089B3146204642
:1040600003F056FE5FEA087024D505EB4611C1F84F
:1040700008BBFA49206800E03EE2026C00EB461003
:1040800001928A42D0F8081B05D9090403D54FF4E0
:104090000041C0F8081B204600F069FAEF4901987A
:1040A000884207D9A079012804D120680121009A0B
:1040B00005F01EFB5FEAC86004D505EB4611102031
:1040C000C1F8080B5FEA88701DD56869000605D540
:1040D000D5F8040840F48061C5F8041806EBC60062
:1040E00004EB800090F8571200F51570012905D1F6
:1040F00080F803A02046F1B200F004FA05EB461167
:104100000220C1F8080B5FEA886004D505EB461170
:104110002020C1F8080B5FEA884005D505EB461161
:104120004FF40050C1F8080B7F08761C002F88D18F
:10413000206805F023FD40036ED5206805F0F6FCED
:104140000026074666E0F80762D02068F1B205F065
:10415000FBFC8046C00723D0D5F8342806F00F01B9
:1041600005EB461309FA01F18A43C5F83428C3F870
:104170000899A07901280FD106EBC60004EB800056
:10418000D0E907211144016236B9606A20B920687C
:104190000121009A05F0ACFA2046F1B2FFF7F5FDD7
:1041A0005FEA087003D505EB4611C1F808B95FEA6C
:1041B000C86004D505EB46111020C1F808095FEA74
:1041C000486004D505EB46114020C1F808095FEAB4
:1041D000887016D53146284605F079FC06EBC600F6
:1041E00004EB8000C17D1430012905D180F803A0C3
:1041F0002046F1B200F082F905EB46110220C1F829
:1042000008095FEA086003D53146204603F0E6FD61
:104210007F08761C002F96D1206805F0AFFC00289F
:1042200011DAD5F8040820F00101C5F8041894F853
:10423000CC0401283BD0204600F07EF9206841697B
:1042400001F000414161206805F098FC00050BD5A4
:10425000D5F80808C00702D0204600F08FF9206882
:10426000416901F400614161206805F087FC0001AB
:104270000AD52068416901F00061416194F8CC04DD
:10428000E0B1204600F07AF9206805F077FCC00420
:1042900072D5D5F8040820F00101C5F8041820688B
:1042A000102105F014FC00214FF67F322DE0002193
:1042B000204684F8CCA4FFF763FDBFE784F8CC94D4
:1042C0002068406D0121C0F38300C4F8D00420466B
:1042D000FFF756FDD8E700BF05EB4110C0F80829ED
:1042E000D0F8003923F40013C0F80039C0F8082BC7
:1042F000D0F8003B23F40013C0F8003BD0F8003B9B
:1043000043F00063C0F8003B491C20798842E3D8A1
:10431000D5F81C0840F00111C5F81C18E07B68B105
:10432000D5F8840840F00B01C5F88418D5F8440886
:1043300040F00B012846C5F844180DE0D5F81408E4
:1043400042F22B010843C5F81408D5F8100840F0D4
:104350000B012846C5F81018D0F8000820F4FE61BB
:10436000C5F80018A1792068009A05F0C1F9206805
:10437000416901F480514161206805F0FFFB800430
:1043800015D5206805F0A6F9206805F0BEFBE071A0
:1043900001F078FAE2790146206805F025FC204614
:1043A00000F0B4F82068416901F4005141612068CF
:1043B00005F0E4FB000707D5204600F0C1F82068AF
:1043C000416901F008014161206805F0D7FB000652
:1043D00016D5A869012620F08001A9610DE000BF73
:1043E00006EBC60004EB800090F85702012803D1C9
:1043F0002046F1B2FFF7E0FC761C2079B042EFD8FE
:10440000206805F0BBFBC0021FD501264F4614E013
:1044100006EBC60105EB461004EB8101D0F800095C
:104420000A7E012A08D1002806DAF0B2CF7540F0E2
:1044300080012046FFF7C0FC761C2079B042E7D807
:104440002068416901F480114161206805F096FB04
:10445000800234D501204B4629E000000A30544F39
:1044600000EBC00205EB401104EB8202D1F8001B07
:1044700092F85862012E19D1002917DA94F8D46401
:1044800001F4803106F00106B1420FD182F85732B3
:10449000A96941F08002AA616969090606D4D5F8C4
:1044A000040840F40070C5F8040803E0401C2179BA
:1044B0008142D5D82068416901F40011416120682A
:1044C00005F05CFB400007D52046FFF75AFC20684A
:1044D000416901F080414161206805F04FFB4007D0
:1044E0000AD520684568680702D52046FFF760FCBA
:1044F0002068416829434160BDE8FC9FD0F8E00492
:1045000004F0C9BDD0F8E00404F0D9BD70B504468C
:10451000C079012570B1022801D0FCF7BEFAD4F8A9
:10452000E004294604F03AFED4F8E004BDE8704007
:1045300004F0EEBD0025F2E7D0F8E00404F017BE69
:10454000D0F8E00404F01DBE10B5044690F89404C1
:1045500001280AD00120617484F89404206805F0D1
:1045600031FB002084F8940410BD022010BDD0F867
:10457000E02400F29C41104604F01CBE10B5044635
:10458000D0F8E00404F04FFE2068D0F8001E41F09F
:104590000101C0F8001EE07A002804D0024801683A
:1045A00041F00601016010BD10ED00E0134970B547
:1045B0000A68D243520705D5096801F00701814214
:1045C00013D118E00A6822F0070202430A60FEF7DE
:1045D000CFFF0A4D4FF47A760446083D07E000BF4E
:1045E000FEF7C6FF001BB04201D9012070BD28684C
:1045F000C0438004F4D4002070BD00000C48025871
:1046000010B501F03FF905490968054AC1F30211E7
:10461000515C01F01F01C84010BD00002044025849
:1046200078BD00084A4930B5494C0B1D0A680C3466
:1046300009681D68246802F0030305F00102C1F354
:104640000511C4F3CC04002914FB02F200EE102A79
:10465000F8EE400A76D0414A9FED3E1ADFED3E1A51
:10466000B7EE000A23B1012B5AD0022B18D15CE01F
:10467000374C283C23689B0612D5394B246801EE41
:10468000901A1168C4F3C104F8EE612AE34001EE08
:10469000903AC1F30801F8EE611A81EEA22A07E010
:1046A00002EE101A1168F8EE422A81EEA22A45E0C5
:1046B00001EE901A1168F8EE611A40EE811A71EE5F
:1046C000800A62EE200AC1F3462101EE101AB8EE0C
:1046D000411A31EE001AC0EE811ABCEEE11A80EDEB
:1046E000001A1168C1F3064101EE101AB8EE411A22
:1046F00031EE001AC0EE811ABCEEE11A80ED011A0B
:104700001168C1F3066101EE101AB8EE411A31EEDC
:10471000000A80EE801ABCEEC10A80ED020A30BDAC
:1047200001EE901ADFED0F2A03E001EE901ADFEDA3
:104730000E2A1168F8EE611A82EEA12AC1F308016F
:10474000B6E7FFE7002101604160816030BD0000F5
:1047500028440258000000390024744C30440258A8
:104760000090D0030024744A001BB74B494930B570
:10477000484C0B1D0A68143409681D68246802F04F
:104780000303C5F30012C1F30531C4F3CC040029BF
:1047900014FB02F200EE102AF8EE400A75D03F4AF0
:1047A0009FED3D1AB7EE000A6BB1DFED3D1A012B0C
:1047B00001D0022B64D002EE101A1168F8EE422AE2
:1047C00081EEA22A21E0334C283C23689B0612D5B7
:1047D000344B246801EE901A1168C4F3C104F8EE5A
:1047E000612AE34001EE903AC1F30801F8EE611A44
:1047F00081EEA22A0BE001EE901ADFED2B2A00BF1A
:10480000F8EE611A116882EEA12AC1F3080101EEE7
:10481000901A1168F8EE611A40EE811A71EE800A62
:1048200062EE200AC1F3462101EE101AB8EE411AD9
:1048300031EE001AC0EE811ABCEEE11A80ED001ACA
:104840001168C1F3064101EE101AB8EE411A31EEBB
:10485000001AC0EE811ABCEEE11A80ED011A11684F
:10486000C1F3066101EE101AB8EE411A31EE000AEA
:1048700080EE801ABCEEC10A80ED020A30BD04E071
:1048800001EE901ADFED092ABAE7002101604160CC
:104890008160F3E728440258000000393844025888
:1048A0000024744A0090D0030024744C001BB74BC2
:1048B000494930B5484C0B1D0A681C3409681D680D
:1048C000246802F00303C5F30022C1F30551C4F3C9
:1048D000CC04002914FB02F200EE102AF8EE400A84
:1048E00075D03F4A9FED3D1AB7EE000A6BB1DFED80
:1048F0003D1A012B01D0022B64D002EE101A116870
:10490000F8EE422A81EEA22A21E0334C283C2368AB
:104910009B0612D5344B246801EE901A1168C4F33B
:10492000C104F8EE612AE34001EE903AC1F30801B8
:10493000F8EE611A81EEA22A0BE001EE901ADFED8B
:104940002B2A00BFF8EE611A116882EEA12AC1F38A
:10495000080101EE901A1168F8EE611A40EE811A12
:1049600071EE800A62EE200AC1F3462101EE101AB0
:10497000B8EE411A31EE001AC0EE811ABCEEE11A0F
:1049800080ED001A1168C1F3064101EE101AB8EE6D
:10499000411A31EE001AC0EE811ABCEEE11A80ED28
:1049A000011A1168C1F3066101EE101AB8EE411A3E
:1049B00031EE000A80EE801ABCEEC10A80ED020AD8
:1049C00030BD04E001EE901ADFED092ABAE70021BC
:1049D000016041608160F3E728440258000000391B
:1049E000404402580024744A0090D0030024744CC0
:1049F000001BB74B2DE9F04FA14A0546DFF87CA21A
:104A000080F48070DFF8809289B013119F4C0843C6
:104A10009C48AAF104064FF0805C4FF0005828D063
:104A2000DFF858B285F480670F430BF1080B4FD0C5
:104A300085F400670F4360D085F480570F4372D030
:104A400085F400570F434FF480394FF4003E69D08E
:104A500085F400270F4373D085F480370F4370D05F
:104A600085F480460E436DD085F400420A436AD037
:104A70002AE0DAF8001001F00701052924D2DFE866
:104A800001F0F9AA6A259F0006A8FFF7CBFD079859
:104A900009B0BDE8F08F6846FFF768FE0098F7E7B9
:104AA00003A8FFF705FF0398F2E72068C0F3C100F1
:104AB00022FA00F0ECE72268D2056ED561456CD190
:104AC0001846E5E74145E3D00020E1E74846DFE747
:104AD000DBF8001001F46001B1F5800F3BD005DC7C
:104AE00000294AD0B1F5001FEED174E0B1F5C00F36
:104AF000ECD0B1F5000FE7D162E0DBF8001001F077
:104B0000E061B1F1007F26D004DCB1B3B1F1807F68
:104B1000DAD160E0B1F1407FD8D0B1F1806FD3D16C
:104B20004EE000E01BE0DAF8001001F4E041B1F5DE
:104B3000005F10D008DC01B3B1F5805FC4D14AE05A
:104B400035E058E065E088E0B1F5405FBED0B1F5F2
:104B5000804FB9D134E020688000B5D5A0E7DAF8FD
:104B6000001001F4E021B1F5403F6DD006DC61B1E9
:104B700049457BD07145A7D158E07BE0B1F5802F46
:104B800066D0B1F5A02F9FD10DE000F09DFE7FE72C
:104B90006846FFF7EBFD01987AE728E003A8FFF7E6
:104BA00087FE049874E7216889038AD48CE7DBF8D0
:104BB000001011F440310ED0494510D0714583D119
:104BC0003168256801F040516D077FF574AF002909
:104BD0007FF471AF69E720680001E7D55BE72068E3
:104BE0008000E3D503A8FFF763FE059850E722682D
:104BF0009203DBD566E7306810F480303AD0484540
:104C0000D4D120680001D1D56846FFF7AFFD0298E6
:104C10003EE7DBF8001001F0E041B1F1405F13D056
:104C200008DC71B1614521D04145BFD120688000C9
:104C3000B4D449E7B1F1804F0AD0B1F1A04FB2D05E
:104C400042E7FFF7DDFC23E720684007AED52CE7FD
:104C50002068C005AAD533E708E0DAF8001011F0A3
:104C60004051A0D0614505D041459FD12068000149
:104C70008ED429E72068800198D505E75044025872
:104C80000090D00300366E010080BB000044025843
:104C90002DE9FE4F0546DFF800A450F8081B00245C
:104CA000FD4FC943019005F1280026460AF1240A68
:104CB000009008011DD4686E50B1B0F5801F0CD073
:104CC000B0F5001F0ED0B0F5401F1ED001240FE03C
:104CD000386840F40030386017E00198022103F092
:104CE000CFF803E00098022103F05AF904000CD039
:104CF00026462888C043C00523D4A86D05281ED2A7
:104D0000DFE800F00C11161B1B006A6EDAF80010C9
:104D100021F440111143CAF80010EAE7386840F462
:104D20000030386009E00198002103F0A9F803E0A1
:104D30000098002103F034F90446C4B100E00124D6
:104D400026462888DFF85083C04308F12C08400528
:104D50002FD4D5F8A400B0F5C00F28D010DCB8B11E
:104D6000B0F5001F19D0B0F5800F0FD11AE0AA6D71
:104D7000DAF8001021F007011143CAF80010E0E74B
:104D8000B0F5000F13D0B0F5200F10D001240FE0C4
:104D9000386840F40030386009E00198002103F0E1
:104DA0006FF803E00098002103F0FAF8044694B18C
:104DB00026462888C043000530D4D5F8A800B0F1B5
:104DC000407F29D011DCC0B1B0F1807F1AD0B0F1A2
:104DD000007F10D11BE0D5F8A420D8F8001021F4F2
:104DE00060011143C8F80010E3E7B0F1806F13D001
:104DF000B0F1A06F10D001240FE0386840F400300B
:104E0000386009E00198002103F03AF803E00098C7
:104E1000002103F0C5F8044694B126462868DFF85F
:104E200078B2C0430BF1200B80011FD4E86CD8B1DD
:104E300010280FD0202812D0302815D0012414E0DB
:104E4000D5F8A820D8F8001021F0E0611143C8F887
:104E50000010E3E7386840F40030386004E001985F
:104E6000022103F00DF8044674B126462888C04399
:104E7000C0042BD4E86DB0F5005F20D00DDCA0B1EC
:104E8000B0F5805F0FD115E0EA6CDBF8001021F07F
:104E900030011143CBF80010E8E7B0F5405F13D0C4
:104EA000B0F5804F10D001240FE0386840F4003096
:104EB000386009E00198002102F0E2FF03E0009869
:104EC000002103F06DF804468CB126462888C043C3
:104ED000800429D4286EB0F5403F23D010DC08B3FD
:104EE000B0F5803F14D0B0F5003F0FD115E0EA6D6A
:104EF000DAF8001021F4E0411143CAF80010E5E7A8
:104F0000B0F5802F0ED0B0F5A02F0BD001240AE011
:104F10000198012102F0B4FF03E00098012103F0A1
:104F20003FF8044694B126462888C04340042AD45A
:104F3000D5F8AC00B0F1405F23D010DC08B3B0F17D
:104F4000805F14D0B0F1005F0FD115E02A6EDAF85F
:104F5000001021F4E0211143CAF80010E4E7B0F199
:104F6000804F0ED0B0F1A04F0BD001240AE0019881
:104F7000012102F085FF03E00098012103F010F801
:104F8000044674B126462888C04300041FD4E86E46
:104F9000D8B1B0F1805F0ED0B0F1005F10D0012425
:104FA00014E0D5F8AC20D8F8001021F0E04111430E
:104FB000C8F80010E7E7386840F40030386004E0D3
:104FC0000198012102F05CFF044674B1264628686E
:104FD000C043C0011ED4A86CD0B101280ED0022855
:104FE00011D0032814D0012413E0EA6EDAF800107F
:104FF00021F040511143CAF80010E8E7386840F446
:105000000030386004E00198022102F039FF0446C4
:105010006CB126462868C043400255D41F48016839
:1050200041F480710160FEF7A3FA81460EE0AA6C9C
:10503000DBF8001021F003011143CBF80010E9E781
:10504000FEF796FAA0EB090064283BD813480068E5
:10505000C005F5D5BCBBDFF84090B5F8B01009F13C
:105060004409D9F8000001F4407100F4407088420E
:1050700011D0D9F80010D9F8002021F4407142F481
:105080008032C9F80020D9F8002022F48032C9F813
:105090000020C9F8001003E02C44025800480258D0
:1050A000D5F8B000B0F5807F19D1FEF761FA029013
:1050B00011E000BFFEF75CFA0299411A41F2883014
:1050C000814208D9032426462878DFF81494C04387
:1050D000C00721D03CE0D9F800008007EAD5D5F818
:1050E000B010C1F301200328FE480DD0016821F45F
:1050F0007C510160B5F8B020D9F80010C2F30B0262
:105100001143C9F80010DFE7F74A036802EA1112F9
:1051100023F47C511143ECE7A86F182816D005DC66
:10512000A0B1082808D0102804D10AE020280DD00A
:1051300028280BD001240AE00198012102F0A0FEEA
:1051400003E00098012102F02BFF044664B12646DB
:105150002878C04380071ED4686F062819D2DFE87C
:1051600000F0160C11161616AA6FD9F8001021F0CF
:1051700038011143C9F80010EAE70198012102F053
:105180007FFE03E00098012102F00AFF04467CB193
:1051900000E0012426462878C04340071FD4D5F8F4
:1051A0009000062819D2DFE800F0160C111616162A
:1051B0006A6FD9F8001021F007011143C9F80010F7
:1051C000E9E70198012102F05BFE03E0009801216C
:1051D00002F0E6FE0446A4B100E001242646287849
:1051E000C04380062BD4D5F88C00B0F1405F24D0AA
:1051F00011DC10B3B0F1805F15D0B0F1005F10D1B9
:1052000016E0D5F89020D8F8001021F007011143DE
:10521000C8F80010E3E7B0F1804F0ED0B0F1A04F16
:105220000BD001240AE00198002102F029FE03E0DE
:105230000098022102F0B4FE044694B12646287874
:10524000C04340062BD4D5F89800B0F5406F24D069
:1052500011DC10B3B0F5806F15D0B0F5006F10D130
:1052600016E0D5F88C20D9F8001021F0E041114368
:10527000C9F80010E3E7B0F5805F0ED0B0F5A05F8D
:105280000BD001240AE00198002102F0F9FD03E0AF
:105290000098022102F084FE044694B12646287844
:1052A000C04300062BD4D5F89C00B0F5C04F24D0E5
:1052B00011DC10B3B0F5005F15D0B0F5804F10D100
:1052C00016E0D5F89820D8F8001021F4E0511143E9
:1052D000C8F80010E3E7B0F5004F0ED0B0F5204F4E
:1052E0000BD001240AE00198002102F0C9FD03E07F
:1052F0000098022102F054FE044654B12646287854
:10530000C04300071ED4D5F88000B0F5805F0AD0F6
:105310000FE0D5F89C20D8F8001021F4604111432B
:10532000C8F80010EBE70098022102F039FE00B146
:105330000126D5F88020D9F8001021F440511143FE
:10534000C9F800102878C043C00613D4D5F89400DB
:10535000B0F5807F05D10098022102F021FE00B156
:105360000126D5F89420D8F8001021F4407111439B
:10537000C8F800102868C043000316D4D5F8A00070
:1053800038B1B0F5803F09D0B0F5003F0BD0012413
:105390000AE00198002102F073FD03E00098022169
:1053A00002F0FEFD04468CB126462868C043400347
:1053B00022D4D5F88400B0F5801F11D0B0F5001FBD
:1053C00013D0B0F5401F15D0012414E0D5F8A0206B
:1053D000D8F8001021F440311143C8F80010E4E778
:1053E000386840F40030386004E00098012102F091
:1053F000D7FD04465CB126462868C043C0031CD4D0
:10540000286D70B1B0F5803F10D0012414E0D5F8BC
:105410008420D9F8001021F440111143C9F800107C
:10542000EAE7386840F40030386004E0019802216F
:1054300002F026FD0446DCB126462868C043800001
:1054400005D40098022102F0ABFD00B101262868C6
:10545000C04380031BD4E86FB8B1B0F5807F10D093
:10546000B0F5007F11D0B0F5407F0ED001240DE0E3
:105470002A6DDBF8001021F480311143CBF80010C5
:10548000DBE7386840F4003038607CB32646286893
:10549000C043C00207D42A6FDAF8001021F000419F
:1054A0001143CAF800102868C043800207D4AA6ECE
:1054B000DAF8001021F080711143CAF80010286852
:1054C000C043400009D40748016821F4004101604D
:1054D0000168D5F8B420114301602868C04306E094
:1054E0005444025810440258CFFFFF001DE007D477
:1054F0006A6DDBF8001021F040511143CBF8001029
:105500002868C043000208D4D5F88820D9F80010D4
:1055100021F440011143C9F8001028790024C04348
:1055200000F00100204309D00EE0EA6FD9F8001026
:1055300021F440711143C9F80010A8E70198002137
:1055400002F09EFC00B106462879C04300F002003C
:10555000204305D10198012102F092FC00B10646DA
:105560002879C04300F00400204305D101980221AE
:1055700002F086FC00B106462879C04300F008001E
:10558000204305D10098002102F00AFD00B1064633
:105590002879C04300F01000204305D10098012174
:1055A00002F0FEFC00B106462879C04300F020005E
:1055B000044304D10098022102F0F2FC00B916B1B4
:1055C0000120BDE8FE8F0020FBE700002DE9F05F21
:1055D00004000F467ED0DFF83882D8F8000000F0D3
:1055E0000F00B8420CD2D8F8001021F00F01394357
:1055F000C8F80010D8F8000000F00F00B84269D1D8
:105600002078844D40070AD52069296801F070018F
:10561000884204D9296821F070010143296020786B
:105620007C4E361D00070AD56069316801F07001B3
:10563000884204D9316821F070010143316020783B
:10564000C0060AD5A069316801F4E061884204D936
:10565000316821F4E061014331602078DFF8B4B1B2
:1056600080060BF1080B0CD5E1695846DBF80020E9
:1056700002F07002914204D9026822F070020A43DB
:105680000260207880070AD5E068296801F00F01E0
:10569000884204D9296821F00F010143296020784C
:1056A000C0073ED05B49A2682868183920F47060B2
:1056B000104328606068022818D0032819D00968B0
:1056C000012819D0490700294ADADFF848A1AAF1D0
:1056D000080A00E044E0DAF8002022F00702024362
:1056E000CAF80020FDF744FF814612E009688903EB
:1056F000E9E709688901E6E7C905E4E7FDF738FF4E
:10570000A0EB090141F28830814202D90320BDE8B3
:10571000F09F6168DAF8000000F03800B0EBC10FCC
:10572000ECD1207880070AD5E068296801F00F01E4
:10573000884204D2296821F00F0101432960D8F87A
:105740000010404601F00F01B9420BD9016821F069
:105750000F0139430160006800F00F00B84201D02A
:105760000120D4E7207840070AD52069296801F094
:105770007001884204D2296821F070010143296038
:10578000207800070AD56069316801F0700188420D
:1057900004D2316821F07001014331602078C006E5
:1057A0000AD5A069316801F4E061884204D2316809
:1057B00021F4E06101433160207880060CD5E16975
:1057C0005846DBF8002002F07002914204D20268D1
:1057D00022F070020A43026000F09AF80E492A682B
:1057E0002B68C2F3032203F00F038A5CC95C02F04A
:1057F0001F0201F01F01D040084A20FA01F1116098
:105800000749086007480068BDE8F05FFDF7ECBE97
:10581000002000521844025878BD00081C000024E3
:10582000180000241000002470B5144C3F220260C0
:10583000124A24680832131D114D04F00704446015
:1058400016681C1D06F470668660166806F00F0662
:10585000C660126802F0700202611A6802F07002FB
:1058600042611A6802F4E0628261226802F070020A
:10587000C261286800F00F00086070BD1044025833
:105880000020005230B500F043F80B4A0B490C4B96
:1058900015681468C5F3032204F00F048A5C095DDF
:1058A00002F01F0201F01F01D040064A20FA01F168
:1058B00019601060084630BD1844025878BD0008D1
:1058C0001C0000241800002400B5FFF7DBFF054989
:1058D0000968054AC1F30211515C01F01F01C8407B
:1058E00000BD00001C44025878BD000800B5FFF759
:1058F000C9FF05490968054AC1F30221515C01F05D
:105900001F01C84000BD00001C44025878BD0008BB
:10591000454970B545480968434B103B11F03802C2
:1059200008D00111082A03D0102A0BD0182A0BD056
:10593000084670BD19688906FBD51968C1F3C10115
:10594000C84070BD3A4870BD3749374D18310C1DFD
:1059500024350A68096826682D6802F0030406F0F9
:105960000102C1F30511C5F3CC0515FB02F200EEEF
:10597000102AB8EE400AE9B32F4ADFED2E0AB7EE3F
:10598000001A6CB1DFED2D1A012C01D0022C43D08E
:1059900002EE101A1068F8EE422A81EEA22A1EE0EA
:1059A0001C68A40611D51B6801EE901A1168C3F398
:1059B000C103F8EE612AD84001EE900AC1F3080055
:1059C000F8EE611A81EEA22A0BE001EE901ADFEDEB
:1059D0001C2A00BFF8EE611A106882EEA12AC0F3FB
:1059E000080001EE900AF8EE611A40EE201A31EE3E
:1059F000810A00E015E022EE000A1068C0F346209C
:105A0000401C00EE900AF8EE600A80EE201ABCEE10
:105A1000C10A10EE100A70BD01EE901ADFED092ADE
:105A2000D8E7002070BD0000104402580090D00359
:105A300000366E0100000039304402580024744AD8
:105A40000024744C001BB74BF0B50D461F49204C89
:105A5000002887B016464FF000004FF002020F6892
:105A60004FF0030319D047F004070F60096801F0F5
:105A70000401059111020091CDE90120CDE9033027
:105A800014486946FDF760FC206845EAC61120F01D
:105A90007E400843206007B0F0BD47F001070F606B
:105AA000096801F0010105914FF480710091CDE981
:105AB0000120CDE9033008486946FDF745FC206820
:105AC000354320F0FE702843E4E70000E04402582C
:105AD0001044025800080258000002582DE9F05FF7
